:020000040000FA
:04000000A3EF0DF06D
:0400180028EF05F0D8
:10020000200148616D737465722020202020202019
:10021000202052756E2D4F2D4D6574657220202063
:10022000202010015374617274206D6561737572C2
:10023000696E67200801436F6E74726F6C730C01F6
:100240004D6561737572656D656E747310015377DA
:1002500069746368206261636B6C696768740C0120
:100260004261636B6C69676874206F6E0D01426157
:10027000636B6C69676874206F6666002001454592
:1002800050524F4D20697320656D7074792044651C
:100290006661756C7473207573656420202020017D
:1002A000576865656C206469616D657465723A2094
:1002B00020202020202020202020636D20202020AE
:1002C00020014D6561737572656D656E7420202027
:1002D00020204261636B6C69676874206F6E202018
:1002E000202020014D6561737572656D656E742007
:1002F000202020204261636B6C69676874206F6600
:100300006620202010014D6561737572656D656E04
:1003100074206F6E202010014D6561737572656DDC
:10032000656E74206F6666200C0153686F772072CB
:100330006573756C74731001457261736520726525
:1003400073756C74732020200601457261736564B7
:10035000100153656E736F7220737461747573202E
:10036000202003114F6E200003114F666600031812
:0A0370004F6E200003184F66660070
:100400000006010C02120318041E0524062A0730F8
:100410000836093C0A420B480C4E0D540E5A0F6028
:100420004D30302030303A30302030302E303020D7
:10043000546F74616C2020303030303030206D20AB
:10044000456D70747920202020202020202020203D
:10045000202020202020202020202020202020209C
:1005000030303031303230333034303530363037CF
:1005100030383039313031313132313331343135B5
:10052000313631373138313932303231323232339B
:100530003234323532363237323832393330333181
:100540003332333333343335333633373338333967
:10055000343034313432343334343435343634375F
:100560003438343935303531353235333534353545
:10057000353635373538353936303631363236332B
:100580003634363536363637363836393730373111
:1005900037323733373437353736373737383739F7
:1005A00038303831383238333834383538363837EF
:1005B00038383839393039313932393339343935D5
:0805C000393639373938393971
:10060000550FC000000000000000000000000000C6
:1006100000000000000000000000000000000000DA
:1006200000000000000000000000000000000000CA
:1006300000000000000000000000000000000000BA
:1006400000000000000000000000000000000000AA
:10065000000000000000000000000000000000009A
:10066000000000000000000000000000000000008A
:10067000000000000000000000000000000000007A
:08068000000000000000000072
:10070000003030000130310002303200033033005D
:10071000043034000530350006303600073037002D
:100720000830380009303900103130001131310003
:1007300012313200133133001431340015313500D9
:1007400016313600173137001831380019313900A9
:100750002032300021323100223232002332330085
:100760002432340025323500263236002732370055
:10077000283238002932390030333000313331002B
:100780003233320033333300343334003533350001
:1007900036333600373337003833380039333900D1
:1007A00040343000413431004234320043343300AD
:1007B000443434004534350046343600473437007D
:1007C0004834380049343900503530005135310053
:1007D0005235320053353300543534005535350029
:1007E00056353600573537005835380059353900F9
:1007F00060363000613631006236320063363300D5
:1008000064363400653635006636360067363700A4
:10081000683638006936390070373000713731007A
:100820007237320073373300743734007537350050
:100830007637360077373700783738007937390020
:1008400080383000813831008238320083383300FC
:1008500084383400853835008638360087383700CC
:1008600088383800893839009039300091393100A2
:100870009239320093393300943934009539350078
:100880009639360097393700983938009939390048
:100900000C131314DFC0000000000D14151685A091
:10091000000000000E1616182B80000000000F17B4
:100920001819D160000000001019191B7740000051
:100930000000111A1B1D1D2000000000121C1D1FAD
:100940004FA000000000131E1E20F58000000000D4
:10095000141F20229B60000000001521212441402B
:100960000000000016222325E720000000001724C5
:1009700024278D00000000001825262932E0000001
:1009800000001927272AD8C0000000001A29292DA5
:100990000B40000000001B2A2B2EB120000000009D
:1009A0001C2C2C305700000000001D2D2E31FCE0C7
:1009B000000000001E2F2F33A2C0000000001F30D7
:1009C000313548A00000000020323236EE800000B1
:1009D0000000213434392100000000002235363A6D
:1009E000C6E0000000002337373C6CC00000000068
:0209F000000005
:100A000000000000000000000001000000000000E5
:100A100000000106000000000000000205060000C2
:100A200000000000040009060000000000060505A3
:100A30000306000000010004080507060000010687
:100A4000070707020106000206080403050405065D
:100A5000E8CF02F0D8CF03F0CD909E0ECF6E570EA8
:100A6000CE6ECD805F2A5FA451EF05F05F6A897476
:100A700001865A2A140E5A6251EF05F05A6A5B2A0F
:100A80003C0E5B6251EF05F05B6A5C2A3C0E5C62D7
:100A900051EF05F05C6A5D2A186251EF05F00184A0
:100AA0005D6A02C0E8FFD8CF03F09E9010000DC031
:100AB00013F0010E0E625FEF05F065EF05F0020E18
:100AC0000E6284EF05F06DEF05F0140EE8CF0FF025
:100AD000830EE8CF10F073EF05F0DC0EE8CF0FF0D7
:100AE000780EE8CF10F00FC011F010C012F0122EE7
:100AF00077EF05F010C012F0112E77EF05F00FC060
:100B000011F0132E77EF05F01200E8CF14F000007B
:100B100000000000000000000000000000000000D5
:100B2000000000000000142E87EF05F01200020EF6
:100B3000E8CF0EF0C40EE8CF0DF057EC05F0120030
:100B4000020EE8CF0EF0C40EE8CF0DF057EC05F022
:100B500057EC05F057EC05F0120000B471EC06F00C
:100B600000A2C0EF05F00800F5CF07F0072A072A1A
:100B700000EE17F00900F5CFEEFF072EBAEF05F0F3
:100B800000EE17F0EECF07F0EECF16F016060F0EC0
:100B90001664D4EF05F01F0E1664D1EF05F0ECEFEC
:100BA00005F0100E165E168C168E009016C0E8FF2B
:100BB000EDEC05F00080EECFE8FFEDEC05F0162A35
:100BC000900E1662E9EF05F00090C00EEDEC05F016
:100BD0000080072EDBEF05F01200E8CF8BFF89982D
:100BE000898A00A0899A030E85EC05F08986030E98
:100BF00085EC05F089968988948E899A020E85EC99
:100C000005F0416A426A8986030E85EC05F01DEC09
:100C100006F000B616EF06F082BE03EF06F08996E6
:100C2000949E020E85EC05F019EF06F0949E17EFE6
:100C300006F0200E85EC05F012000096422A000E08
:100C4000426229EF06F0412A100E416229EF06F0B8
:100C500000861200020EE8CF0EF0140EE8CF0DF061
:100C600057EC05F0899A8998946A050E85EC05F091
:100C7000380E8B6E020E85EC05F08986030E85EC2E
:100C800005F08996050E85EC05F0380E8B6E020E88
:100C900085EC05F08986030E85EC05F08996800EBB
:100CA00085EC05F0380E8B6E020E85EC05F089861A
:100CB000030E85EC05F089960A0E85EC05F0009090
:100CC000380EEDEC05F00C0EEDEC05F0010EEDEC40
:100CD00005F0060EEDEC05F0320E85EC05F089828C
:100CE00012000090010EEDEC05F0020EE8CF0EF0C0
:100CF000020EE8CF0DF057EC05F01200446A43886D
:100D0000438A81A8439881A6439AC00E4314E8CF32
:100D100009F0300E4314E846E846095C02E1FBEFB7
:100D200006F043B8448043BC448243BA448443BE83
:100D30004486030E4314E8CF09F0000E095C08E076
:100D4000010E095C11E0020E095C26E0FBEF06F0E3
:100D5000010E445C02E1B0EF06F00D0E445C02E1CE
:100D600043804392FBEF06F0020E445C02E1BCEFCD
:100D700006F00E0E445C04E143904392FBEF06F054
:100D8000070E445C02E1C8EF06F00B0E445C33E151
:100D900043904382FBEF06F0070E445C02E1D4EF80
:100DA00006F00B0E445C04E143804392FBEF06F037
:100DB000020E445C02E1E0EF06F00E0E445C1BE123
:100DC0004390439243BEF1EF06F0462A47C0E8FF46
:100DD0004662FBEF06F0466A0098008A008CFBEF43
:100DE00006F0452A47C0E8FF4562FBEF06F0456A7A
:100DF0000088009A008C438C438E43A8439C43AAEE
:100E0000439E1200020EE8CF0EF0320EE8CF0DF036
:100E100057EC05F01200AA6AA198A69EA69CA6848B
:100E2000550EA76EAA0EA76EA682A1A815EF07F011
:100E3000A198A694A86A1200A69EA69CA68000006F
:100E40000000A6B021EF07F0A8CF49F01200000E75
:100E5000E8CFA9FF1CEC07F0550E496232EF07F00E
:100E600050EF07F08980020EF76E7C0EF66E00825E
:100E70000084ADEC05F0060EE8CFF7FF000EE8CFDA
:100E8000F6FFA96A880EE8CF06F00900F5CFA8FFA3
:100E90000BEC07F0A92A062E45EF07F0A0EC05F0B1
:100EA000010EE8CFA9FF1CEC07F049C04CF06DEC37
:100EB0000AF0020EE8CFA9FF1CEC07F049C009F0C8
:100EC0000190019209BE018009BC0182899001B0A4
:100ED00089801200060EE8CFF7FF100EE8CFF6FF6C
:100EE000780EE8CF06F0100EE8CFA9FF0900F5CF85
:100EF000A8FF0BEC07F0A92A062E76EF07F01200E8
:100F0000800EE8CF09F0780EE8CF0AF029EC08F05F
:100F1000780EE8CF09F0700EE8CF0AF029EC08F05F
:100F2000700EE8CF09F0680EE8CF0AF029EC08F05F
:100F3000680EE8CF09F0600EE8CF0AF029EC08F05F
:100F4000600EE8CF09F0580EE8CF0AF029EC08F05F
:100F5000580EE8CF09F0500EE8CF0AF029EC08F05F
:100F6000500EE8CF09F0480EE8CF0AF029EC08F05F
:100F7000480EE8CF09F0400EE8CF0AF029EC08F05F
:100F8000400EE8CF09F0380EE8CF0AF029EC08F05F
:100F9000380EE8CF09F0300EE8CF0AF029EC08F05F
:100FA000300EE8CF09F0280EE8CF0AF029EC08F05F
:100FB000280EE8CF09F0200EE8CF0AF029EC08F05F
:100FC000200EE8CF09F0180EE8CF0AF029EC08F05F
:100FD000180EE8CF09F0100EE8CF0AF029EC08F05F
:100FE000100EE8CFA9FF5DC0A8FF0BEC07F0110EB3
:100FF000E8CFA9FF5CC0A8FF0BEC07F0120EE8CF0A
:10100000A9FF54C0A8FF0BEC07F0130EE8CFA9FF0F
:1010100055C0A8FF0BEC07F0140EE8CFA9FF56C08F
:10102000A8FF0BEC07F0150EE8CFA9FF57C0A8FFEB
:101030000BEC07F0160EE8CFA9FF8BC0A8FF0BEC56
:1010400007F0170EE8CFA9FF8CC0A8FF0BEC07F044
:101050001200080EE8CF07F00AC0A9FF1CEC07F049
:1010600009C0A9FF49C0A8FF0BEC07F00A2A092A0A
:10107000072E2CEF08F0120081BA3CEF08F002ECCA
:1010800007F002EC07F081AA43EF08F002EC07F04A
:101090001200010EE8CF47F002EC07F002EC07F077
:1010A00002EC07F0020EF76E220EF66E008200844C
:1010B000ADEC05F07EEC06F081AA68EF08F000AC1C
:1010C0005AEF08F0009C00A8EEEF09F071EF08F06D
:1010D00002EC07F081AA6AEF08F002EC07F0B5EF26
:1010E0000DF002EC07F0020EF76E340EF66E008281
:1010F0000084ADEC05F07EEC06F081AA89EF08F0E3
:1011000000AC7BEF08F0009C00A850EF08F071EFF6
:1011100009F002EC07F081AA8BEF08F002EC07F06F
:10112000020EF76E9E0EF66E00820084ADEC05F0A6
:10113000180EE8CF4DF04DEC09F07EEC06F081AAD8
:10114000C2EF08F000AC9DEF08F0009C00A8ABEFE8
:1011500008F0B4EF08F00C0E4C62B1EF08F09DEF10
:1011600008F04C06BBEF08F0230E4C62BAEF08F013
:101170009DEF08F04C2A180EE8CF4DF04DEC09F029
:101180009DEF08F002EC07F081AAC4EF08F002EC32
:1011900007F0010EE8CFA9FF4CC0A8FF0BEC07F049
:1011A0006DEC0AF001A2DFEF08F0020EF76EC00E40
:1011B000F66E00820084ADEC05F0E7EF08F0020E59
:1011C000F76EE20EF66E00820084ADEC05F07EEC68
:1011D00006F081AAFBEF08F000ACE7EF08F0009CF6
:1011E00000A8F5EF08F0F8EF08F00182D2EF08F060
:1011F0000192D2EF08F002EC07F0020EE8CFA9FF4F
:101200001CEC07F049C009F0099C01B2098C020EE0
:10121000E8CFA9FF09C0A8FF0BEC07F0030EF76E9B
:10122000500EF66E00820084ADEC05F081B01BEF2D
:1012300009F025EF09F0030EF76E680EF66E0082D6
:101240000094ADEC05F02DEF09F0030EF76E620E81
:10125000F66E00820094ADEC05F081B232EF09F039
:101260003CEF09F0030EF76E740EF66E00820094E8
:10127000ADEC05F044EF09F0030EF76E6E0EF66E5E
:1012800000820094ADEC05F07EEC06F081AA4BEFF5
:1012900009F016EF09F071EF08F0070EE8CFF7FF3D
:1012A000000EE8CFF6FF040E4C02D890F3CFE8FF13
:1012B000F626F4CFE8FFF72200EE17F0020EE8CF93
:1012C000EEFF4DC0E8FFE8CFEEFF09000900F5CFC3
:1012D000EEFF0900F5CFEEFF00920094ADEC05F0B3
:1012E000120002EC07F0020EF76E3E0EF66E008260
:1012F0000084ADEC05F07EEC06F081AA89EF09F0E0
:1013000000AC7BEF09F0009C00A871EF08F0EEEF55
:1013100009F002EC07F0030EF76E280EF66E00825D
:101320000084ADEC05F07EEC06F081AAA1EF09F097
:1013300000AC93EF09F0009C00A8CAEF09F0CAEFD7
:1013400009F002EC07F0010EE8CF8DF06EEC0BF027
:101350007EEC06F081AA71EF09F000ACA8EF09F06D
:10136000009C00A8C0EF09F0B6EF09F08D2B100E1D
:101370008D63A6EF09F0010EE8CF8DF0A6EF09F01E
:101380008D07000E8D63A6EF09F00F0EE8CF8DF0EC
:10139000A6EF09F0030EF76E360EF66E008200849B
:1013A000ADEC05F07EEC06F081AAE0EF09F000ACB0
:1013B000D2EF09F0009C00A88BEF09F08BEF09F049
:1013C0006AEC07F0030EF76E480EF66E008200849A
:1013D000ADEC05F0A0EC05F071EF09F002EC07F0C0
:1013E000020EF76E4C0EF66E00820084ADEC05F036
:1013F000FAEF09F07EEC06F081AA08EF0AF000ACE3
:10140000FAEF09F0009C00A871EF09F050EF08F026
:1014100002EC07F089A017EF0AF0020EF76E5E0EDD
:10142000F66E00820084ADEC05F01FEF0AF0020EAC
:10143000F76E6C0EF66E00820084ADEC05F07EEC6B
:1014400006F081AA33EF0AF000AC1FEF0AF0009C0F
:1014500000A82DEF0AF030EF0AF0898008EF0AF0BB
:10146000899008EF0AF0020EE8CFA9FF1CEC07F004
:1014700049C009F0099E89B0098E020EE8CFA9FF84
:1014800009C0A8FF0BEC07F002EC07F081AA46EFB9
:101490000AF002EC07F0EEEF09F012000F0E4B64B9
:1014A00053EF0AF04B6ABD9ABD98040EE8CFF7FFE0
:1014B000000EE8CFF6FF0800F5CFE8FF4B6263EFC0
:1014C0000AF068EF0AF0D890020EF6265BEF0AF0F9
:1014D00009000800F5CFBEFF1200090EE8CFF7FFA4
:1014E000000EE8CFF6FF0900F5CFE8FF4C628AEF67
:1014F0000AF00900F5CF4EF00900F5CF4FF00900D2
:10150000F5CF51F00900F5CF52F00900F5CF53F0B7
:1015100091EF0AF0D890090EF626D8B0F72A73EFAB
:101520000AF01200656B666B180EE8CF06F0D890D3
:101530006235613760376637653762376451665F99
:101540006351D8A0633D655FD8B0628162B1ACEFF2
:101550000AF0652764516627062E97EF0AF01200FD
:101560008EB7B6EF0AF08E2BF1EF0AF05EC060F096
:10157000D7CF61F0D6CF62F0636B640EE8CF64F032
:1015800092EC0AF061C063F062C064F051C060F098
:1015900052C061F053C062F092EC0AF061C089F071
:1015A00062C08AF0050E8965D8EF0AF0F1EF0AF003
:1015B00089C0E8FF8B65DFEF0AF0F1EF0AF089C020
:1015C000E8FF8B63EBEF0AF08AC0E8FF8C65EBEF76
:1015D0000AF0F1EF0AF089C08BF08AC08CF0F1EFCD
:1015E0000AF01200676B686B696B6A6B6B6B6C6BF4
:1015F0006D6B6E6B6F6B706B00EE71F010EE77F0D1
:10160000040EE8CF07F0EECF09F009C006F00F0E88
:10161000091609C0E6FF06420642064206420F0EC0
:10162000061606C0E6FF072E03EF0BF00A0EF76E54
:10163000000EF66E00EE77F0080EE8CF06F00A0E08
:10164000E8CF07F010EE7FF00900F5CFE6FF072E98
:1016500024EF0BF0EECF09F0000E096232EF0BF031
:1016600053EF0BF009C007F00A0EE8CF08F010EEB8
:1016700088F020EE67F0D890E5CFE8FFDF26090E6E
:10168000DF644BEF0BF0D8800A0EDF5EDECFE8FFA1
:10169000DF2A4DEF0BF0DECFE8FF082E3BEF0BF01B
:1016A000072E34EF0BF0062E1FEF0BF01200D89030
:1016B00050C0E8FF5926D8B0582AD89050C0E8FF4B
:1016C0005726D8A06DEF0BF0562AD8A06DEF0BF07F
:1016D000552AD8A06DEF0BF0542A1200080EE8CF5F
:1016E000A9FF080E8D03F3CFE8FFD890A9261CECC4
:1016F00007F049C05DF0A92A1CEC07F049C05CF076
:10170000A92A1CEC07F049C054F0A92A1CEC07F0E8
:1017100049C055F0A92A1CEC07F049C056F0A92A87
:101720001CEC07F049C057F0A92A1CEC07F049C08F
:101730008BF0A92A1CEC07F049C08CF0040EE8CF0E
:10174000F7FF200EE8CFF6FF00EE17F0320EE8CFDD
:10175000EEFF010EE8CFEEFF280EE8CF06F00900FD
:10176000F5CFEEFF062EAFEF0BF000EE17F0E92AF3
:10177000E92AE92A050EE8CFF7FF000EE8CFF6FFC9
:10178000020E8D03D890F3CFE8FFF6260900F5CFBF
:10179000EEFF0900F5CFEEFFE92A000E5D62E6EFED
:1017A0000BF0000E5C62E6EF0BF0040EE8CFF7FFE3
:1017B000400EE8CFF6FF240EE8CF06F00900F5CF83
:1017C000EEFF062EDEEF0BF05AEF0CF0050EE8CF21
:1017D000F7FF000EE8CFF6FF020E5D02D890F3CFC0
:1017E000E8FFF6260900F5CFEEFF0900F5CFEEFF82
:1017F000E92A050EE8CFF7FF000EE8CFF6FF020E4C
:101800005C02D890F3CFE8FFF6260900F5CFEEFF93
:101810000900F5CFEEFFEACF04F0E9CF05F08CC068
:1018200071F08BC072F0736B746BF2EC0AF004C051
:10183000EAFF05C0E9FF6789678B6889688B69895A
:10184000698B6A896A8BE92A6AC0EEFF69C0EEFF7C
:10185000E92A68C0EEFF67C0EEFFEACF04F0E9CFE7
:1018600005F057C071F056C072F055C073F054C007
:1018700074F0F2EC0AF004C0EAFF05C0E9FFD8906A
:10188000080EE9266989698B6A896A8B6B896B8B7B
:101890006C896C8B6D896D8B6E896E8B6EC0EEFF63
:1018A0006DC0EEFF6CC0EEFF6BC0EEFF6AC0EEFFD6
:1018B00069C0EEFF00920084ADEC05F01200080E46
:1018C000066E020E0E6E050E0D6E898257EC05F047
:1018D000899257EC05F0062E65EF0CF08992020E06
:1018E000F76E000EF66E00820084ADEC05F012007B
:1018F000C69A949694988B968B98000EA5EC0CF053
:10190000AA0EA5EC0CF0010E85EC05F0550E9FBF5C
:101910005A0EA5EC0CF07F0E9F179FC007F09FC0DA
:10192000E8FFA5EC0CF020EE8FF0DECFE8FFA5EC91
:101930000CF0072E95EF0CF0948694888B868B889C
:10194000C68A0A0E85EC05F01200E8CF09F08B86F6
:1019500009AE8B96010E85EC05F08B88010E85ECA7
:1019600005F08B988B8609AC8B96010E85EC05F003
:101970008B88010E85EC05F08B988B8609AA8B96D7
:10198000010E85EC05F08B88010E85EC05F08B9837
:101990008B8609A88B96010E85EC05F08B88010ECD
:1019A00085EC05F08B988B8609A68B96010E85EC4D
:1019B00005F08B88010E85EC05F08B988B8609A4C9
:1019C0008B96010E85EC05F08B88010E85EC05F0F9
:1019D0008B988B8609A28B96010E85EC05F08B887F
:1019E000010E85EC05F08B988B8609A08B96010E75
:1019F00085EC05F08B88010E85EC05F08B98010EC7
:101A000085EC05F01200D08EF29EF29C000ED36E93
:101A1000000EE8CF38FFE8CF39FFE8CF3AFF9292C7
:101A20009290929492969298929A938093829394A1
:101A300093869388938A946A89808992006A016A5E
:101A4000026A066A076A086A096A0D6A0E6A0F6AFC
:101A5000106A116A126A136A146A156A166A00EE2D
:101A600017F02A0EE8CF07F0EE6A072E34EF0DF0DC
:101A7000416A426A436A446A456A466A476A486AF2
:101A8000496A4A6A4B6A4C6A4D6A4E6A4F6A506AA2
:101A9000546A556A566A576A586A596A5A6A5B6A3A
:101AA0005C6A5D6A5E6A5F6A606B616B626B636BE6
:101AB000646B656B666B676B686B696B6A6B6B6B92
:101AC0006C6B6D6B6E6B6F6B706B716B726B736B42
:101AD000746B756B766B776B786B796B7A6B7B6BF2
:101AE0007C6B7D6B7E6B7F6B806B816B826B836BA2
:101AF000846B856B866B876B886B896B8A6B8B6B52
:101B00008C6B8D6B8E6B030EE8CFD5FF310EE8CF5B
:101B1000CDFFCC9E9D809F909E90A69EA69C4993B3
:101B200049910C0EE8CFBDFF020EE8CFB9FF050EBC
:101B3000E8CFBAFF680EE8CFBBFF080EE8CF4BF046
:101B40004EEC0AF0120003EC0DF097EC05F02AECD5
:101B500006F05FEC0CF097EC05F027EC07F05FEC7B
:101B60000CF03CEC08F049EF08F002EC07F0030E33
:101B7000F76E040EF66E00820084ADEC05F08990DD
:101B800001B289805A6A5B6A5C6A5D6A0194546A30
:101B9000556A566A576A586A596A8B6B8C6B896B9F
:101BA0008A6B5E6AD76AD66AD59E81B2D5EF0DF090
:101BB00081B0D8EF0DF08E6BF28EF28C8972D5BEAB
:101BC000B0EC0AF04EC050F057EC0BF05E6AD76AEA
:101BD000D66AD58E81AA1AEF0EF001B41AEF0EF074
:101BE000F2B4F5EF0DF0FCEF0DF0D5AEFCEF0DF01B
:101BF0005E2AF2945EBCD59E81B2EAEF0DF04FC032
:101C000050F057EC0BF081AA1AEF0EF001B41AEF66
:101C10000EF0F2B40EEF0EF015EF0EF0D5AE15EF9C
:101C20000EF05E2AF2945EBCD59E81B003EF0EF0FA
:101C3000DEEF0DF0F29EF29C02EC07F0000E5D620A
:101C400028EF0EF0000E5C6228EF0EF02AEF0EF087
:101C500080EC07F0899001B08980030EF76E160EB4
:101C6000F66E00820084ADEC05F0A0EC05F0010EEC
:101C7000E8CF8DF06EEC0BF081BA3CEF0EF002EC89
:061C800007F049EF08F037
:020000040030CA
:0100010033CB
:0100020018E5
:010003003CC0
:01000500BD3D
:010006008178
:00000001FF
